:100000000C942A000C943C000C943C000C943C0092
:100010000C943C000C943C000C943C000C943C0070
:100020000C943C000C943C000C943C000C943C0060
:100030000C943C000C943C000C943C000C943C0050
:100040000C943C000C943C000C943C000C943C0040
:100050000C943C0011241FBECFE5D4E0DEBFCDBF21
:1000600020E0A0E6B0E001C01D92A33FB207E1F797
:100070000E9434030C9432090C940000EF92FF921A
:100080000F931F93CF93DF93CDB7DEB7FC010DB76E
:100090001EB7DC010D900020E9F71197BD01681B28
:1000A000790B7B018DB79EB7861B970B0FB6F89423
:1000B0009EBF0FBE8DBF4DB75EB74F5F5F4F161629
:1000C000170614F580818C32A1F0DF01119620E033
:1000D00030E003C09D919C3271F02F5F3F4FE216DC
:1000E000F306C1F708C091919D93A217B307D9F702
:1000F0000BC020E030E02F5F3F4FE20FF31FDA012B
:100100009A01260F371FEFCFCA010E94D7080FB6FA
:10011000F8941EBF0FBE0DBFDF91CF911F910F91BD
:10012000FF90EF9008950F931F93CF93DF93CDB778
:10013000DEB70DB71EB7FC0101900020E9F731973B
:100140009F01281B390B4DB75EB7421B530B0FB6EF
:10015000F8945EBF0FBE4DBF4F5F5F4F1216130680
:1001600054F4DC011196FA01240F351F9D919193EF
:10017000E217F307D9F7CA010E94D7080FB6F8941F
:100180001EBF0FBE0DBFDF91CF911F910F9108953C
:10019000FC012081318171836083CB01821B930B31
:1001A0000895672B09F09FC0009711F4D89808951F
:1001B0008130910511F4D99808958230910511F498
:1001C000DA9808958330910511F4DB98089584300E
:1001D000910511F4DC9808958530910511F4DD98AE
:1001E00008958630910511F4DE98089587309105C1
:1001F00011F4DF9808958A30910511F4C09808959C
:100200008B30910511F4C19808958C30910511F44B
:10021000C29808958D30910511F4C39808958E30D9
:10022000910511F4C49808958F30910511F4C59883
:1002300008958031910511F4C69808958131910592
:1002400011F4C79808958431910511F4A898089580
:100250008531910511F4A99808958631910511F41D
:10026000AA9808958731910511F4AB9808958831C3
:10027000910511F4AC9808958931910511F4AD9868
:1002800008958A31910511F4AE9808958B31910546
:1002900011F4AF9808958E31910511F49098089556
:1002A0008F31910511F4919808958032910511F4E0
:1002B000929808958132910511F4939808958232AD
:1002C000910511F4949808958332910511F495984D
:1002D00008958432910511F496980895859709F050
:1002E0009FC097980895009711F4D89A0895813087
:1002F000910511F4D99A08958230910511F4DA9A92
:1003000008958330910511F4DB9A089584309105A6
:1003100011F4DC9A08958530910511F4DD9A089561
:100320008630910511F4DE9A08958730910511F415
:10033000DF9A08958A30910511F4C09A08958B30A0
:10034000910511F4C19A08958C30910511F4C29A67
:1003500008958D30910511F4C39A08958E3091055A
:1003600011F4C49A08958F30910511F4C59A089537
:100370008031910511F4C69A08958131910511F4E7
:10038000C79A08958431910511F4A89A089585318A
:10039000910511F4A99A08958631910511F4AA9A4C
:1003A00008958731910511F4AB9A0895883191052C
:1003B00011F4AC9A08958931910511F4AD9A08951C
:1003C0008A31910511F4AE9A08958B31910511F49B
:1003D000AF9A08958E31910511F4909A08958F3156
:1003E000910511F4919A08958032910511F4929A31
:1003F00008958132910511F4939A089582329105FE
:1004000011F4949A08958332910511F4959A089500
:100410008432910511F4969A0895859709F4979A74
:100420000895CF93C82F80FF07C061E070E08AE095
:1004300090E00E94D10006C060E070E08AE090E0A9
:100440000E94D100C1FF07C061E070E08BE090E046
:100450000E94D10006C060E070E08BE090E00E9456
:10046000D100C2FF07C061E070E08CE090E00E9424
:10047000D10006C060E070E08CE090E00E94D10006
:10048000C3FF07C061E070E08DE090E00E94D10002
:1004900006C060E070E08DE090E00E94D100CF9156
:1004A0000895CF93C82F60E070E08EE090E00E9446
:1004B000D1008C2F0E94110261E070E08FE090E08B
:1004C0000E94D1008FE99FE00197F1F700C0000082
:1004D00060E070E08FE090E00E94D1008FE99FE043
:1004E0000197F1F700C00000CF91089580E00E94CD
:1004F000510281E00E9451020895CF93C62F8130AE
:1005000059F480E8860F82958F700E9451028C2FDB
:100510008F700E9451020CC0823051F480EC860F23
:1005200082958F700E9451028C2F8F700E94510211
:10053000CF91089580E00E9411022FEF89EF90E0A3
:10054000215080409040E1F700C0000083E00E940D
:1005500051028FE19EE40197F1F700C0000083E0B3
:100560000E9451028FED9BEA0197F1F700C0000055
:1005700083E00E94510282E00E94510282E00E94C8
:10058000510288E00E94510280E00E9451028CE0FA
:100590000E94510280E00E94510286E00E945102B6
:1005A0000895CF93C82F61E070E08EE090E00E9444
:1005B000D1008C2F82958F700E94110261E070E053
:1005C0008FE090E00E94D1008FE99FE00197F1F762
:1005D00000C0000060E070E08FE090E00E94D10079
:1005E0008FE99FE00197F1F700C000008C2F8F701A
:1005F0000E94110261E070E08FE090E00E94D10063
:100600008FE99FE00197F1F700C0000060E070E023
:100610008FE090E00E94D1008FE99FE00197F1F711
:1006200000C00000CF910895CF93DF93EC01888143
:10063000882331F021960E94D10289918111FBCF4C
:10064000DF91CF91089568EE73E081E090E00E9421
:10065000970684B38F6784BB87B38F6387BB0E9481
:100660005E070E949A020895CF93DF9300D000D0D6
:10067000CDB7DEB70E9423030E9476020E946A076C
:1006800082E890E00E94D7089093900080938F00BA
:1006900082E890E00E943E00909381008093800069
:1006A00082E890E00E9493009093B2008093B100A2
:1006B0004AE061E970E080918F00909190000E9483
:1006C000F5084AE063EB70E0809180009091810032
:1006D0000E94F5084AE062ED70E08091B1009091CF
:1006E000B2000E94F50861E081E00E947D0281E98C
:1006F00090E00E94140361E082E00E947D0283EB9F
:1007000090E00E94140369E082E00E947D0282ED85
:1007100090E00E9414032FEF89E698E12150804079
:100720009040E1F700C0000060918F007091900050
:100730006B3F710584F580918000909181008B3F23
:10074000910548F58091B1009091B2008B3F9105E1
:1007500010F5772304F184E690E00E94C80090939E
:100760007D0080937C00609180007091810082E622
:1007700090E00E94C80090937F0080937E0060917B
:10078000B1007091B20080E690E00E94C8009093A2
:10079000B0008093AF0060917C0070917D00072EC7
:1007A000000C880B990B0E94FA07162F7C838B8311
:1007B000092F60917E0070917F00072E000C880B3E
:1007C000990B0E94FA076B017C016091AF00709158
:1007D000B000072E000C880B990B0E94FA07362EEA
:1007E000272E89839A8380906E0090906F00A0904E
:1007F0007000B090710020E030E0A901C501B401A3
:100800000E94F307882359F0A5019401612F7C8190
:100810008B81902F0E9486074B015C0104C0812EC2
:100820009C80AB80B02E40906A0050906B0060902E
:100830006C0070906D0020E030E0A901C301B201AE
:100840000E94F307882341F0A3019201C701B6017A
:100850000E9486076B017C01409066005090670003
:10086000609068007090690020E030E0A901C30149
:10087000B2010E94F307882359F0A3019201632D6E
:10088000722D89819A810E9486072B013C0104C048
:10089000432C522C69807A8020E030E0A901C50108
:1008A000B4010E94F30788233CF4B7FAB094B7F878
:1008B000B09481E080938E0020E030E0A901C70170
:1008C000B6010E94F30788233CF4F7FAF094F7F896
:1008D000F09481E08093D10020E030E0A901C301D1
:1008E000B2010E94F30788233CF477FA709477F8FA
:1008F000709481E08093F00020E030E0A901C50110
:10090000B4010E94AA088823C4F080918E0061E09F
:1009100070E090E00E94D10620E030E040E85FE324
:10092000C501B4010E9486074B015C0120E030E064
:10093000A9010E94AA08882344F720E030E0A90119
:10094000C701B6010E94AA088823C4F08091D10093
:1009500061E070E090E00E94000720E030E040E8B5
:100960005FE3C701B6010E9486076B017C0120E0AE
:1009700030E0A9010E94AA08882344F720E030E073
:10098000A901C301B2010E94AA088823C4F0809182
:10099000F00061E070E090E00E942F0720E030E07E
:1009A00040E85FE3C301B2010E9486072B013C01CE
:1009B00020E030E0A9010E94AA08882344F7812F93
:1009C0009C81AB81B02F80936E0090936F00A093B9
:1009D0007000B0937100832D922DA981BA8180930C
:1009E0006A0090936B00A0936C00B0936D0044CEAE
:1009F000672B09F09FC0009711F4D89808958130B3
:100A0000910511F4D99808958230910511F4DA987E
:100A100008958330910511F4DB9808958430910591
:100A200011F4DC9808958530910511F4DD9808954E
:100A30008630910511F4DE9808958730910511F400
:100A4000DF9808958A30910511F4C09808958B308D
:100A5000910511F4C19808958C30910511F4C29854
:100A600008958D30910511F4C39808958E30910545
:100A700011F4C49808958F30910511F4C598089524
:100A80008031910511F4C69808958131910511F4D2
:100A9000C79808958431910511F4A8980895853177
:100AA000910511F4A99808958631910511F4AA9839
:100AB00008958731910511F4AB9808958831910517
:100AC00011F4AC9808958931910511F4AD98089509
:100AD0008A31910511F4AE9808958B31910511F486
:100AE000AF9808958E31910511F4909808958F3143
:100AF000910511F4919808958032910511F492981E
:100B000008958132910511F49398089582329105E8
:100B100011F4949808958332910511F495980895ED
:100B20008432910511F496980895859709F09FC035
:100B300097980895009711F4D89A089581309105F7
:100B400011F4D99A08958230910511F4DA9A089532
:100B50008330910511F4DB9A08958430910511F4E6
:100B6000DC9A08958530910511F4DD9A0895863058
:100B7000910511F4DE9A08958730910511F4DF9AFA
:100B800008958A30910511F4C09A08958B3091052B
:100B900011F4C19A08958C30910511F4C29A089508
:100BA0008D30910511F4C39A08958E30910511F49A
:100BB000C49A08958F30910511F4C59A0895803133
:100BC000910511F4C69A08958131910511F4C79ADF
:100BD00008958431910511F4A89A089585319105FD
:100BE00011F4A99A08958631910511F4AA9A0895ED
:100BF0008731910511F4AB9A08958831910511F46C
:100C0000AC9A08958931910511F4AD9A08958A310D
:100C1000910511F4AE9A08958B31910511F4AF9AB4
:100C200008958E31910511F4909A08958F319105B0
:100C300011F4919A08958032910511F4929A0895D1
:100C40008132910511F4939A08958232910511F43D
:100C5000949A08958332910511F4959A08958432F7
:100C6000910511F4969A0895859709F4979A089535
:100C700060E070E084E190E00E94F80460E070E0E1
:100C800085E190E00E94F80460E070E086E190E089
:100C90000E94F804089561E070E084E190E00E9411
:100CA000F80460E070E085E190E00E94F80460E004
:100CB00070E086E190E00E94F804089560E070E042
:100CC00084E190E00E94F80461E070E085E190E04A
:100CD0000E94F80460E070E086E190E00E94F80471
:100CE000089561E070E084E190E00E94F80461E022
:100CF00070E085E190E00E94F80460E070E086E139
:100D000090E00E94F804089561E070E084E190E0D2
:100D10000E94F80461E070E085E190E00E94F80430
:100D200061E070E086E190E00E94F8040895CF93BE
:100D3000DF93EB018630910599F034F48130910511
:100D400049F0029751F014C08830910561F0409746
:100D500069F00EC00E9438060BC00E944B0608C006
:100D60000E945E0605C00E94710602C00E948406B1
:100D7000D093F200C093F100DF91CF910895BC01B0
:100D800088EE93E00E94AF08161617064CF489EF20
:100D900090E00197F1F700C0000061507109B9F7C8
:100DA0000895CF93C62F882339F061E070E088E181
:100DB00090E00E94F80406C060E070E088E190E0F6
:100DC0000E94F804CC23D1F061E070E087E190E06C
:100DD0000E94F80489EF90E00197F1F700C000004D
:100DE00060E070E087E190E00E94F8048091F100FB
:100DF0009091F2000E94BF06C15031F7CF91089543
:100E0000CF93C62F882339F061E070E08AE190E04B
:100E10000E94F80406C060E070E08AE190E00E9461
:100E2000F804CC23D1F061E070E089E190E00E9409
:100E3000F80489EF90E00197F1F700C0000060E04E
:100E400070E089E190E00E94F8048091F1009091B7
:100E5000F2000E94BF06C15031F7CF910895CF93A1
:100E6000C62F882339F061E070E08EE190E00E94A7
:100E7000F80406C060E070E08EE190E00E94F804A3
:100E8000CC23D1F061E070E087E090E00E94F804AC
:100E900089EF90E00197F1F700C0000060E070E09A
:100EA00087E090E00E94F8048091F1009091F200B8
:100EB0000E94BF06C15031F7CF91089583E389B9ED
:100EC00010BC88E18AB986E080BD08955F9BFECFA3
:100ED0008CB10895CF93DF9310927300109272003B
:100EE000C0E0D0E00E946607CC58DF4F8883C091F5
:100EF0007200D09173002196D0937300C09372005A
:100F0000C730D1057CF3DF91CF9108955058BB27AE
:100F1000AA270E949E070C9470080E94620838F06D
:100F20000E94690820F039F49F3F19F426F40C94CC
:100F30005F080EF4E095E7FB0C945908E92F0E9436
:100F4000810858F3BA17620773078407950720F0E2
:100F500079F4A6F50C94A3080EF4E0950B2EBA2FA5
:100F6000A02D0B01B90190010C01CA01A0011124AF
:100F7000FF27591B99F0593F50F4503E68F11A165B
:100F8000F040A22F232F342F4427585FF3CF4695EC
:100F900037952795A795F0405395C9F77EF41F160E
:100FA000BA0B620B730B840BBAF09150A1F0FF0FD8
:100FB000BB1F661F771F881FC2F70EC0BA0F621FC4
:100FC000731F841F48F4879577956795B795F795B4
:100FD0009E3F08F0B0CF9395880F08F09927EE0F49
:100FE0009795879508950E94350808F481E0089543
:100FF000E89409C097FB3EF49095809570956195B3
:101000007F4F8F4F9F4F9923A9F0F92F96E9BB2768
:101010009395F695879577956795B795F111F8CFE4
:10102000FAF4BB0F11F460FF1BC06F5F7F4F8F4F4F
:101030009F4F16C0882311F096E911C0772321F045
:101040009EE8872F762F05C0662371F096E8862FDD
:1010500070E060E02AF09A95660F771F881FDAF734
:10106000880F9695879597F90895990F0008550F61
:10107000AA0BE0E8FEEF16161706E807F907C0F01E
:1010800012161306E407F50798F0621B730B840B26
:10109000950B39F40A2661F0232B242B252B21F400
:1010A00008950A2609F4A140A6958FEF811D811DA0
:1010B000089597F99F6780E870E060E008959FEFDA
:1010C00080EC089500240A941616170618060906DF
:1010D000089500240A9412161306140605060895AE
:1010E000092E0394000C11F4882352F0BB0F40F436
:1010F000BF2B11F460FF04C06F5F7F4F8F4F9F4F76
:10110000089557FD9058440F551F59F05F3F71F0F7
:101110004795880F97FB991F61F09F3F79F087955E
:101120000895121613061406551FF2CF4695F1DFE7
:1011300008C0161617061806991FF1CF8695710577
:10114000610508940895E894BB2766277727CB01AB
:1011500097F908950E94350808F48FEF089597FBDA
:10116000072E16F4009407D077FD09D00E94C3081B
:1011700007FC05D03EF4909581959F4F089570959A
:1011800061957F4F0895AA1BBB1B51E107C0AA1FA1
:10119000BB1FA617B70710F0A61BB70B881F991F18
:1011A0005A95A9F780959095BC01CD010895FC0151
:1011B00088279927E89421912032E9F3293010F00B
:1011C0002E30C8F32B3241F02D3239F4689404C02C
:1011D0000E940009820F911D219120532A30C0F3F3
:1011E0001EF4909581959F4F0895BB274A3031F4A6
:1011F000992322F4BDE2909581959F4F0C940909A3
:101200007AE0979F902D879F802D910D112408954E
:10121000BB27FB015527AA27880F991FAA1FA417D0
:1012200010F0A41B83955051B9F7A05DAA3308F0C4
:10123000A95DA193009779F7B111B1931192CB01F8
:101240000C942209DC01FC01672F71917723E1F7EF
:10125000329704C07C916D9370836291AE17BF0783
:08126000C8F30895F894FFCFD4
:00000001FF
