:100000000C942A000C943C000C943C000C943C0092
:100010000C943C000C943C000C943C000C943C0070
:100020000C943C000C943C000C943C000C943C0060
:100030000C943C000C943C000C943C000C943C0050
:100040000C943C000C943C000C943C000C943C0040
:100050000C943C0011241FBECFE5D4E0DEBFCDBF21
:1000600021E0A0E6B0E001C01D92AD30B207E1F79B
:100070000E94DE000C9435050C940000CF93DF93B2
:10008000CDB7DEB7C456D1090FB6F894DEBF0FBEA8
:10009000CDBFAC01FE0131969E012B593F4F11920D
:1000A000E217F307E1F760E070E020E030E0FA01EA
:1000B000E20FF31F90819D3299F4F901E60FF71FCB
:1000C000E40FF51F8181A1E0B0E0AC0FBD1FA60FCA
:1000D000B71F8C9382818B3331F06F5F7F4FE7CFF7
:1000E0002F5F3F4FE4CFCE0101960E940F05CC5900
:1000F000DF4F0FB6F894DEBF0FBECDBFDF91CF91BB
:100100000895CF93DF93CDB7DEB7C456D1090FB6AC
:10011000F894DEBF0FBECDBFAC01FE0131969E014B
:100120002B593F4F1192E217F307E1F760E070E0BF
:1001300020E030E0FA01E20FF31F90819C3299F445
:10014000F901E60FF71FE40FF51F8181A1E0B0E090
:10015000AC0FBD1FA60FB71F8C9382818D3231F07B
:100160006F5F7F4FE7CF2F5F3F4FE4CFCE01019608
:100170000E940F05CC59DF4F0FB6F894DEBF0FBEBB
:10018000CDBFDF91CF910895FC0120813181718332
:100190006083CB01821B930B089568EE73E080E1CE
:1001A00090E00E94580384B38FEF84BBD79A60E835
:1001B00075E280E090E00E94A10408950E94CD00C5
:1001C000C9EDD0E001E014E6E5E7F0E01192EC17AC
:1001D000FD07E1F785E790E00E94AD0485E790E038
:1001E0000E940F0590936E0080936D0085E790E06C
:1001F0000E94810090936C0080936B0085E790E0F3
:100200000E943E00909372008093710060916D0097
:1002100070916E006B3F7105B0F520916B003091CD
:100220006C002B3F310578F58B3F910560F584E636
:1002300090E00E94C40090936A00809369006091EE
:100240006B0070916C0082E690E00E94C400909375
:10025000740080937300609171007091720080E669
:1002600090E00E94C4009093700080936F00109201
:100270006E0010926D0010926C0010926B00109244
:100280007200109271008091690090916A00992328
:1002900054F491958195910990936A008093690037
:1002A0000093680002C010926800809173009091E2
:1002B0007400992354F49195819591099093740059
:1002C000809373000093670002C0109267008091D2
:1002D0006F0090917000992354F491958195910944
:1002E0009093700080936F000093660002C010929C
:1002F00066008091690090916A00189FA001199F83
:10030000500D1124052E000C660B770B80916800B0
:100310000E94DD038091730090917400189FA001EA
:10032000199F500D1124052E000C660B770B809140
:1003300067000E94080480916F0090917000189FE0
:10034000A001199F500D1124052E000C660B770B90
:10035000809167000E94330410926A001092690035
:1003600010927400109273001092700010926F003F
:100370002BCF672B09F09FC0009711F4D8980895F0
:100380008130910511F4D99808958230910511F4C6
:10039000DA9808958330910511F4DB98089584303C
:1003A000910511F4DC9808958530910511F4DD98DC
:1003B00008958630910511F4DE98089587309105EF
:1003C00011F4DF9808958A30910511F4C0980895CA
:1003D0008B30910511F4C19808958C30910511F47A
:1003E000C29808958D30910511F4C39808958E3008
:1003F000910511F4C49808958F30910511F4C598B2
:1004000008958031910511F4C698089581319105C0
:1004100011F4C79808958431910511F4A8980895AE
:100420008531910511F4A99808958631910511F44B
:10043000AA9808958731910511F4AB9808958831F1
:10044000910511F4AC9808958931910511F4AD9896
:1004500008958A31910511F4AE9808958B31910574
:1004600011F4AF9808958E31910511F49098089584
:100470008F31910511F4919808958032910511F40E
:10048000929808958132910511F4939808958232DB
:10049000910511F4949808958332910511F495987B
:1004A00008958432910511F496980895859709F07E
:1004B0009FC097980895009711F4D89A08958130B5
:1004C000910511F4D99A08958230910511F4DA9AC0
:1004D00008958330910511F4DB9A089584309105D5
:1004E00011F4DC9A08958530910511F4DD9A089590
:1004F0008630910511F4DE9A08958730910511F444
:10050000DF9A08958A30910511F4C09A08958B30CE
:10051000910511F4C19A08958C30910511F4C29A95
:1005200008958D30910511F4C39A08958E30910588
:1005300011F4C49A08958F30910511F4C59A089565
:100540008031910511F4C69A08958131910511F415
:10055000C79A08958431910511F4A89A08958531B8
:10056000910511F4A99A08958631910511F4AA9A7A
:1005700008958731910511F4AB9A0895883191055A
:1005800011F4AC9A08958931910511F4AD9A08954A
:100590008A31910511F4AE9A08958B31910511F4C9
:1005A000AF9A08958E31910511F4909A08958F3184
:1005B000910511F4919A08958032910511F4929A5F
:1005C00008958132910511F4939A0895823291052C
:1005D00011F4949A08958332910511F4959A08952F
:1005E0008432910511F4969A0895859709F4979AA3
:1005F000089560E070E084E190E00E94B90160E05D
:1006000070E085E190E00E94B90160E070E086E171
:1006100090E00E94B901089561E070E084E190E00B
:100620000E94B90160E070E085E190E00E94B901AC
:1006300060E070E086E190E00E94B901089560E01A
:1006400070E084E190E00E94B90161E070E085E132
:1006500090E00E94B90160E070E086E190E00E94C5
:10066000B901089561E070E084E190E00E94B90171
:1006700061E070E085E190E00E94B90160E070E027
:1006800086E190E00E94B901089561E070E084E1A4
:1006900090E00E94B90161E070E085E190E00E9485
:1006A000B90161E070E086E190E00E94B90108952F
:1006B000CF93DF93EB018630910599F034F48130CC
:1006C000910549F0029751F014C08830910561F00E
:1006D000409769F00EC00E94F9020BC00E940C0303
:1006E00008C00E941F0305C00E94320302C00E947E
:1006F0004503D0930C01C0930B01DF91CF91089576
:10070000BC0188EE93E00E94C504161617064CF44F
:100710008FEC97E00197F1F700C00000615071097C
:10072000B9F7089561E070E088E190E00E94B901B6
:1007300080910B0190910C010E94800360E070E0B9
:1007400088E190E00E94B90187EC90E00197F1F711
:1007500000C00000089561E070E089E190E00E942F
:10076000B90180910B0190910C010E94800360E01F
:1007700070E089E190E00E94B90187EC90E0019778
:10078000F1F700C00000089561E070E08BE190E0B7
:100790000E94B90180910B0190910C010E9480038D
:1007A00060E070E08BE190E00E94B90187EC90E09E
:1007B0000197F1F700C000000895CF92DF92EF9209
:1007C000FF92CF93C82F6A017B01882339F061E043
:1007D00070E087E190E00E94B90106C060E070E03F
:1007E00087E190E00E94B9011C141D041E041F043F
:1007F0004CF48C2F0E94920381E0C81AD108E108C2
:10080000F108B9F7CF91FF90EF90DF90CF90089566
:10081000CF92DF92EF92FF92CF93C82F6A017B01B4
:10082000882339F061E070E08AE190E00E94B9012C
:1008300006C060E070E08AE190E00E94B9011C14FB
:100840001D041E041F044CF48C2F0E94AB0381E096
:10085000C81AD108E108F108B9F7CF91FF90EF90DD
:10086000DF90CF900895CF92DF92EF92FF92CF93D7
:10087000C82F6A017B01882339F061E070E080E0D5
:1008800090E00E94B90106C060E070E080E090E076
:100890000E94B9011C141D041E041F044CF48C2F6B
:1008A0000E94C40381E0C81AD108E108F108B9F731
:1008B000CF91FF90EF90DF90CF9008950F931F930B
:1008C0008B019C01DC01CB0180569940A109B10943
:1008D000813A984BA140B10568F580E090E0DC01D9
:1008E000801B910BA20BB30B880F991FAA1FBB1F74
:1008F000880F991FAA1FBB1F880F991FAA1FBB1F14
:10090000BC01CD017C5D8B409F4F000F111F221F4A
:10091000331F000F111F221F331FA9019801220F3F
:10092000331F441F551F220F331F441F551F0E94A2
:10093000D90402C027E630E029B930BD1F910F91DC
:10094000089528E12AB926E820BD1BB80E945E045C
:1009500008955F9BFECF8CB108950F931F93CF93A3
:100960008C01C0E00E94A9048B3329F4F801EC0F3C
:10097000F11D808306C0F801EC0FF11D8083CF5F6D
:10098000F1CFCF911F910F91089597FB072E16F489
:10099000009407D077FD09D00E94FB0407FC05D026
:1009A0003EF4909581959F4F0895709561957F4F86
:1009B0000895A1E21A2EAA1BBB1BFD010DC0AA1FA0
:1009C000BB1FEE1FFF1FA217B307E407F50720F0B8
:1009D000A21BB30BE40BF50B661F771F881F991F33
:1009E0001A9469F760957095809590959B01AC017C
:1009F000BD01CF010895AA1BBB1B51E107C0AA1F6F
:100A0000BB1FA617B70710F0A61BB70B881F991FAF
:100A10005A95A9F780959095BC01CD010895FC01E8
:100A200088279927E89421912032E9F3293010F0A2
:100A30002E30C8F32B3241F02D3239F4689404C0C3
:100A40000E942D05820F911D219120532A30C0F361
:100A50001EF4909581959F4F08957AE0979F902D71
:0E0A6000879F802D910D11240895F894FFCFEB
:00000001FF
